:1009400064656300696E6300736574002573202518
:1009500075487A3B2063757272656E742025754800
:100960007A0D0A0054303A20256278202562783BBF
:1009700020543A2025750D0A004100667271206FDF
:100980007574206F662072616E67650D0A00420003
:1009900043004400450046004700756E6B6E6F775C
:0809A0006E20636D640D0A0076
:07001A00022503E80151007B
:0A0AB000438901D28CD2A9D2AF22F3
:100A9600AB07AA06E4F9F8FF7E087D07FC1209F900
:0A0AA600C3E49FF550E49EF54F22D3
:03000B00020A776F
:100A7700C0E0C0D075D000C007E54FFFF58C8F24CC
:0F0A8700AF508F8A8F23B292D007D0D0D0E032F9
:100A3D00759850438920AB07AA06A905A8047F0025
:100A4D007EC07DA87C00120408E47B20FAF9F81220
:100A5D000408E47B0CFAF9F8120408EFF404F58DA0
:0A0A6D00858D8BD28ED2ACD2AF2261
:030023000209A827
:0B09A800C0E0C0D075D000C000C00748
:1009B30030983AE5517036E522B41403752200E508
:1009C30099640A701C74272522F87600E5226009D1
:1009D3002426F8E6B40D02760075220075510180D5
:0D09E3000AAF22052274272FF8A699C298AA
:0909F000D007D000D0D0D0E032D5
:080003008F993099FDC299228A
:0E0802008E548F558C568D578B588A59895AB3
:10081000C3E55664809480500B755BFF755C097569
:100820005D408016D3E5579400E55664809480407F
:1008300016755BFF755C09755D44AF57AE561200C7
:100840000E8E5E8F5F800F755BFF755C09755D486E
:1008500085545E85555FE5552557FFE5543556AB04
:1008600058AA59A95A8FF01203ADAB58AA59A95AE0
:10087000120382FFAEF0120A96855B63855C648585
:100880005D65855E66855F67AB58AA59A95A1203F4
:1008900082F56985F0687BFF7A09794C1200887BC4
:1008A000FF7A097964852363852464854F658550C3
:0408B0006602008854
:1006C3007F807E257D007C00120A3D120AB07B00EC
:1006D3007A007952E4FDFC7FE87E03120802E551BB
:1006E300B401FB78277C007D007BFF7A09797912BE
:1006F3000618EF701EE5532464FFE43552FED3EF72
:1007030094D0EE940750427B007A0079527D647C4A
:1007130000802F78277C007D007BFF7A09798E1279
:100723000618EF702DE553249CFFE55234FFFEC3FA
:10073300EF94F4EE940140117B007A0079527D9C92
:100743007CFFAF53AE520207EE7BFF7A09797B023F
:1007530007F978277C007D007BFF7A0979901206E0
:1007630018EF700DFB7A007952FDFC7FE87E038061
:100773007A78277C007D007BFF7A0979921206182C
:10078300EF700DFB7A007952FDFC7FD07E07805B12
:1007930078277C007D007BFF7A097994120618EF95
:1007A300700DFB7A007952FDFC7F607E09803C78F6
:1007B300277C007D007BFF7A097996120618EF707B
:1007C3000DFB7A007952FDFC7F907E01801D782716
:1007D3007C007D007BFF7A097998120618EF701070
:1007E300FB7A007952FDFC7F2C7E011208028009FE
:0F07F3007BFF7A09799A120088E4F5510206E13A
:030000000208B43F
:0C08B400787FE4F6D8FD7581730208FB24
:10038200BB010A89828A83E0F5F0A3E02250068746
:10039200F009E71922BBFE07E3F5F009E319228908
:0B03A200828A83E493F5F0740193223B
:1003AD00BB010A89828A83F0E5F0A3F0225006F79B
:0F03BD0009A7F01922BBFE06F3E5F009F3192298
:1003CC0075F008758200EF2FFFEE33FECD33CDCCE8
:1003DC0033CCC58233C5829BED9AEC99E58298406B
:1003EC000CF582EE9BFEED9AFDEC99FC0FD5F0D648
:1003FC00E4CEFBE4CDFAE4CCF9A88222B800C1B972
:10040C000059BA002DEC8BF084CFCECDFCE5F0CBAF
:10041C00F97818EF2FFFEE33FEED33FDEC33FCEBE8
:10042C0033FB10D703994004EB99FB0FD8E5E4F9A3
:10043C00FA227818EF2FFFEE33FEED33FDEC33FC90
:10044C00C933C910D7059BE99A4007EC9BFCE99A84
:10045C00F90FD8E0E4C9FAE4CCFB2275F010EF2FC9
:10046C00FFEE33FEED33FDCC33CCC833C810D707C9
:10047C009BEC9AE899400AED9BFDEC9AFCE899F804
:0E048C000FD5F0DAE4CDFBE4CCFAE4C8F92297
:1009F900C2D5E830E70FB2D5E4C39BFBE49AFAE429
:100A090099F9E498F8EC30E717B2D5120A2F1204D5
:100A190008E4C39BFBE49AFAE499F9E498F88003A3
:100A290012040830D50DE4C39FFFE49EFEE49DFD4A
:040A3900E49CFC221B
:10002600E56F2463F8E6056F22786030070278638F
:10003600E475F00112068D0206352000EB7F2ED204
:10004600008018EF540F2490D43440D4FF30040BB2
:10005600EF24BFB41A0050032461FFE57060021557
:10006600700573E5737002057230070D7860E475EC
:10007600F00112068DEF02067B0200037403D2071D
:100086008003E4C207F56F8B608A618962E4F570CC
:10009600F572F573E57060077F2012006180F575D3
:1000A60071FFC201C200C202C203C205C206C20873
:1000B60012002FFF700D3007057F00120072AF731C
:1000C600AE7222B4255FC2D5C20412002FFF24D01F
:1000D600B40A00501A75F00A787030D50508B6FFD4
:1000E6000106C6A426F620D5047002D20380D924C0
:1000F600CFB41A00EF5004C2E5D204020272D20154
:1001060080C6D20080C0D20280BCD2D580BAD205C9
:1001160080B47F201200612002077401B570004090
:10012600F1120026FF12006102009AD208D2068060
:1001360095120026FB120026FA120026F94A4B7089
:100146000679437A037BFF20022EE570602A7E0043
:100156008E8275830012064E60060EEE657170F093
:10016600C2D5EBC0E0EAC0E0E9C0E0EE1202B9D0C9
:10017600E0F9D0E0FAD0E0FB120635FF60AAEBC04A
:10018600E0EAC0E0E9C0E0120061D0E02401F9D065
:10019600E03400FAD0E0FBE5710460DCD571D9806B
:1001A600877BFF7A0279B5D202809C79108002792A
:1001B60008C206C2088008D2D5790A8004790AC224
:1001C600D5E571047002F571E4FAFDFEFF12002612
:1001D600FC7B08200113120026FD7B1030000A125A
:1001E6000026FE120026FF7B20EC3382D592D550E6
:1001F60013C3E43000069FFFE49EFEE42001039D46
:10020600FDE49CFCE4CBF8C201EC700CCFCECDCC67
:10021600E824F8F870F38017C3EF33FFEE33FEEDF2
:1002260033FDEC33FCEB33FB994002FB0FD8E9EBD3
:10023600300105F8D0E0C448B201C0E00AEC4D4EEA
:100246004F78207B0070C2EAB5710040BCC0E01256
:1002560002BBD0F0D0E0200104C4C0E0C4B201C0AB
:10026600F012004AD0F0D5F0EB02009A12069D017A
:10027600375301B15801084C01044201B54F01BD85
:0F0286004401BD49011D4301C35501A74601A70E
:100295004501A747036350010C2D01102E01332B97
:1002A500011423013120034C2A00CC480000012B06
:1002B5003F3F3F00790AA2D5200314300509B91044
:1002C500020404B9080104A2D52006025001042045
:1002D50002689202B570005034C0E07F20300319E7
:1002E5007F30A20272067205500F120312C202C2BB
:1002F50006C205C2087F30800F300503E9C0E01251
:100305000061300503D0E0F9D0E0B570CC300517B9
:100315007F30B9100C1200617F583004077F788058
:1003250003B908031200613002057F2D0200617FC9
:10033500202008F87F2B2006F322920280CF286E1A
:10034500756C6C2900D2011200263001F8C20178C3
:100355007030D50108F60200CC2D504349581200E3
:10036500262403B405004001E490035E9312005275
:0D037500743A120052D2037570040201B1F7
:0C000E00EE30E707C3E49FFFE49EFE22F3
:10049A00E3F5F009E208B5F06D606B80F3E3F5F07F
:1004AA0009E608B5F060605E80F387F009E608B5F2
:1004BA00F054605280F487F009E208B5F0486046CB
:1004CA0080F488828C8387F009E0A3B5F03860361F
:1004DA0080F488828C8387F009E493A3B5F02760BF
:1004EA002580F388828C83E3F5F009E0A3B5F01642
:1004FA00601480F388828C83E3F5F009E493A3B552
:10050A00F004600280F20205C5808580E7808E8053
:10051A00D2803C8015806C807E809B80B5808B80E9
:10052A00A1804F8070803A0205D189828A83ECFAD1
:10053A00E493F5F0A3C8C582C8CCC583CCE493A3E1
:10054A00C8C582C8CCC583CCB5F070606E80E1891D
:10055A00828A83E493F5F0A3E208B5F05E605C80DA
:10056A00F289828A83E0F5F0A3E608B5F04D604B84
:10057A0080F389828A83E0F5F0A3E208B5F03C6053
:10058A003A80F389828A83E493F5F0A3E608B5F00A
:10059A002A602880F2805389828A83ECFAE493F5F0
:1005AA00F0A3C8C582C8CCC583CCE0A3C8C582C89D
:1005BA00CCC583CCB5F004600280E27FFFB5F002BF
:1005CA000F2240027F012289828A83ECFAE0F5F049
:1005DA00A3C8C582C8CCC583CCE0A3C8C582C8CC91
:1005EA00C583CCB5F0D560D380E389828A83ECFADF
:1005FA00E0F5F0A3C8C582C8CCC583CCE493A3C8F0
:10060A00C582C8CCC583CCB5F0B160AF80E288F0B2
:10061A00ED2402B4040050A3F582EB2402B40400D2
:0B062A00509923234582239005137391
:1008C0000206C3E493A3F8E493A34003F68001F285
:1008D00008DFF48029E493A3F85407240CC8C33339
:1008E000C4540F4420C8834004F456800146F6DF08
:1008F000E4800B010204081020408090001AE47E7E
:10090000019360BCA3FF543F30E509541FFEE493FC
:10091000A360010ECF54C025E060A840B8E493A3C3
:10092000FAE493A3F8E493A3C8C582C8CAC583CAEE
:10093000F0A3C8C582C8CAC583CADFE9DEE780BEA6
:0100210000DE
:10063500BB010689828A83E0225002E722BBFE02C3
:09064500E32289828A83E49322F6
:10064E00BB010CE58229F582E5833AF583E0225061
:10065E0006E92582F8E622BBFE06E92582F8E222AB
:0D066E00E58229F582E5833AF583E49322C5
:10067B00BB010689828A83F0225002F722BBFE015E
:02068B00F32258
:10068D00FAE6FB0808E6F925F0F618E6CA3AF6226E
:10069D00D083D082F8E4937012740193700DA3A3EC
:1006AD0093F8740193F5828883E473740293686000
:0606BD00EFA3A3A380DF00
:00000001FF
