:10106B004141006672713A202575487A2020743A06
:10107B00202575757320686967683A202575757327
:10108B000D0A0041004F5645520D0A002575487A4E
:10109B000D0A0042004C4F570D0A0025676B487A2A
:1010AB000D0A00430025676D730D0A004400756E31
:1010BB006B6E6F776E20636D640D0A00436F756EF8
:1010CB00746572206973207265616479210D0A0061
:08000E00020D0000020F0000CA
:10127200758911E4F58AF58CF58BF58DD2A9D2AB7F
:03128200D2AF22C6
:03000B00021200DE
:10120000C0E0050EE50E7002050D640A450D701470
:10121000F514F513F512F511F50CF50BF50AF509B2
:07122000F50DF50ED0E032E0
:03001B00021227A7
:10122700C0E00510E5107002050F640A450F701441
:10123700F514F513F512F511F50CF50BF50AF5098B
:07124700F50FF510D0E032B5
:1011D000E50C2514FFE50B3513FEE50A3512FDE598
:1011E000093511FCE47B0CFAF9F812057DE41200D4
:1011F000C67B7C7AF27930784112002912010422F0
:10114400E50C2514FFE50B3513FEE50A3512FDE524
:10115400093511FCE47B0CFAF9F812057DE4120060
:10116400C67B7C7AF279307841120029120104EFAF
:101174004E6011AB07AA06E4F9F87F407E427D0F6A
:07118400FC02118CE4FEFFE8
:01118B002241
:10124E00E47F0CFEFDFCAB0CAA0BA90AA809120543
:10125E007DE41200C67B7C7AF27930784112002947
:04126E001201042243
:1010DB008F458E448D438C42759850AB45AA44A9DD
:1010EB0043A8427F007EC07DA87C00120608E47BEB
:1010FB0020FAF9F8120608C3E49FFFE49EFE740180
:10110B009DFDE49CFC78081206A88FCB8FCDAB45D8
:10111B00AA44A943A8427F007EC07DA87C0012068A
:10112B0008E47B20FAF9F8120608EFF404F5CAF587
:09113B00CC75C834D2ACD2AF224D
:080003008F993099FDC299228A
:100CFB0078007C007D017BFF7A10796B12086FEF17
:100D0B007026121144C007C0061211D0C007C006CE
:100D1B0012124E8E498F4AD047D048D045D0467BD1
:100D2B00FF7A10796E020E7378007C007D017BFFD9
:0A0D3B007A10798E12086FEF70280D
:100D45001211448E238F24D3E52494E8E5239403DC
:100D55007BFF40077A107990020E737A1079978598
:050D6500234585244632
:100D6A00020E7378007C007D017BFF7A10799E1257
:050D7A00086FEF70524C
:100D7F001211448E238F24C3E52494E8E5239403B2
:100D8F0050097BFF7A1079A0020E73D3E5249410DB
:100D9F00E523942740097BFF7A107990020E73ACFC
:100DAF0023AD24E41200CBE4FBFA797A78441200E5
:0F0DBF00298F488E478D468C457BFF7A1079A689
:100DCE00020E7378007C007D017BFF7A1079AE12E3
:050DDE00086FEF703CFE
:100DE3001211D08E238F24D3E52494E8E5239403B2
:100DF30040087BFF7A1079908076AC23AD24E4120F
:100E030000CBE4FBFA797A78441200298F488E47A5
:0A0E13008D468C457BFF7A1079B004
:100E1D00805478007C007D017BFF7A1079B7120831
:040E2D006FEF703CB7
:100E310012124E8E238F24D3E52494E8E5239403E4
:100E410040087BFF7A1079908028AC23AD24E4120E
:100E510000CBE4FBFA797A78441200298F488E4757
:0A0E61008D468C457BFF7A1079B0B6
:0C0E6B0080067BFF7A1079B91208EE2295
:03002300020F5079
:100F5000C0E0C0F0C083C082C0D075D000C000C067
:0D0F600001C002C003C004C005C006C007E8
:100F6D00309854E508B41403750800E599640A70C7
:100F7D003374002508F582E43400F583E4F0E508C8
:100F8D00601A24FFF582E434FFF583E0B40D0D748F
:100F9D00FF2508F582E434FFF583E4F075080012AF
:100FAD000CFB8011AF08050874002FF582E43400A6
:070FBD00F583E599F0C298ED
:100FC400D007D006D005D004D003D002D001D00081
:0B0FD400D0D0D082D083D0F0D0E0322B
:100E77001212727F807E257D007C001210DB7BFFC3
:100E87007A1079C71208EE2093FD3093FDC28ED2F7
:100E97008C2093FDC28CD28E3093FDC28ED28C05EE
:100EA70041E541B40AE7C28EC28CAE0DAF0EE4FC39
:100EB700FDFBFA7901F812057DA804A905AA06AB7E
:100EC70007AF8CEFFEAD8AEDFFE4FCFDEB2FFFEAE9
:100ED7003EFEED39FDEC38FCE47B0AFAF9F8121115
:100EE7008C8F0C8E0B8D0A8C09AE0FAF10E4FCFDB6
:100EF700FBFA7901F812057DA804A905AA06AB0734
:100F0700AF8DEFFEAD8BEDFFE4FCFDEB2FFFEA3E6F
:100F1700FEED39FDEC38FCE47B0AFAF9F812118C86
:100F27008F148E138D128C11E4F50FF510F50DF556
:100F37000EF541D28ED28C2093FD3093FDE4F58AD5
:090F4700F58CF58BF58D020E947A
:1000260002017AEC5D046005E85904700302017070
:1000360012013B580460F6EC4860F2EC7004FDFED9
:10004600FF22C860DB2481C85009C39860025006AD
:100056000201779850CAF582E9294B4A7005AB82AE
:1000660002016675F0007C1A7880C3EF9BEE9AED6C
:1000760099400DC3EF9BFFEE9AFEED99FDE842F025
:10008600DC23ACF0D0E0FFD0E0FED0E0FDAB822078
:10009600E7101BEB60BAEC2CFCEF33FFEE33FEED02
:1000A60033FD020152E803F830E705C0F075F000B1
:1000B600EF2FFFEE33FEED33FD40B830E7C280AAE6
:1000C60075F020800E75F010800575F0087D007EB5
:1000D600007F003392D530D50312069AEC334010D8
:1000E600EF33FFEE33FEED33FDEC33FCD5F0ED22BE
:0E00F600E5F0247EA2D513CC92E7CDCEFF22FA
:10010400EDD2E7CD33EC3392D524814006E4FFFEF3
:10011400FDFC22FCE4CFCECDCC24E0501174FF8052
:10012400EDC3CC13CCCD13CDCE13CECF13CF0470EF
:07013400F030D5DE02069A4F
:10088C00E5592445F8E6055922784230100278459E
:10089C00E475F0011206BB0205252009EB7F2ED270
:1008AC00098018EF540F2490D43440D4FF300D0B32
:1008BC00EF24BFB41A0050032461FFE55A600215FF
:1008CC005A055DE55D7002055C30100D7842E475EB
:1008DC00F0011206BBEF02056B0200037403D21089
:1008EC008003E4C210F5598B428A438944E4F55ADB
:1008FC00F55CF55DE55A60077F201208C780F57539
:10090C005BFFC20AC209C20BC20CC20EC20FC211DB
:10091C00120895FF700D3010057F001208D8AF5DDE
:10092C00AE5C22B4255FC2D5C20D120895FF24D04F
:10093C00B40A00501A75F00A785A30D50508B6FF7B
:10094C000106C6A426F620D5047002D20C80D92448
:10095C00CFB41A00EF5004C2E5D20D020BC5D20A77
:10096C0080C6D20980C0D20B80BCD2D580BAD20E40
:10097C0080B47F201208C7200B077401B55A0040C1
:10098C00F112088CFF1208C7020900D211D20F8095
:10099C009512088CFB12088CFA12088CF94A4B70D1
:1009AC000679BC7A0C7BFF200B2EE55A602A7E0060
:1009BC008E8275830012053E60060EEE655B70F04C
:1009CC00C2D5EBC0E0EAC0E0E9C0E0EE120C25D0E5
:1009DC00E0F9D0E0FAD0E0FB120525FF60AAEBC0ED
:1009EC00E0EAC0E0E9C0E01208C7D0E02401F9D089
:1009FC00E03400FAD0E0FBE55B0460DCD55BD98029
:100A0C0087D20B80A2120C0860F7E55B7001041210
:100A1C000185A95B600DE55B600914F55B120CAFF9
:100A2C00EF60F3EA30E702F404C3995077EAF42557
:100A3C005B0430E701E404F55B800D120C0860C127
:100A4C00EA055B255B120185EA7858F630E701E48C
:100A5C00255B04D55B04200E0114120C25E4C0E0C8
:100A6C00120CAF7858E6601320E70714F61208AFA3
:100A7C00802204F6D0E014C0E07F001208AFE55BE2
:100A8C0060071208A6155B800B300E031208A6D067
:100A9C00E0020900D0E00480C5120C0860A0E55B00
:100AAC00041201857858EAF6E55B200E0260010419
:050ABC002404120C25CA
:100AC10074FF04C0E0120CAF1208AFE55B200E0208
:100AD10060031208A6D0E0B55BE87F451208B9783B
:100AE10058E67F2B30E7047F2DF404C0E01208C7DD
:100AF100D0E075F00A84C0F01208B0D0E01208B05E
:100B0100020900791080027908C20FC2118008D24F
:100B1100D5790A8004790AC2D5E55B047002F55BD8
:100B2100E4FAFDFEFF12088CFC7B08200A13120870
:100B31008CFD7B1030090A12088CFE12088CFF7B99
:100B410020EC3382D592D55013C3E43009069FFFC0
:100B5100E49EFEE4200A039DFDE49CFCE4CBF8C284
:100B61000AEC700CCFCECDCCE824F8F870F38017E6
:100B7100C3EF33FFEE33FEED33FDEC33FCEB33FB20
:100B8100994002FB0FD8E9EB300A05F8D0E0C448E0
:100B9100B20AC0E00AEC4D4E4F78207B0070C2EAE9
:100BA100B55B0040BCC0E0120C27D0F0D0E0200AB9
:100BB10004C4C0E0C4B20AC0F01208B0D0F0D5F04D
:100BC100EB0209001206CB099D530B0458096E4C28
:100BD100096A420B084F0B10440B10490983430B60
:100BE10016550A47460AA5450A11470CDC500972F9
:100BF1002D09762E09992B097A230997200CC52AEC
:100C010009324800000991E55BB4FF03755B0612E8
:100C1100088CFC12088CFD12088CFE12088CFF78DF
:100C2100510201B4790AA2D5200C14300E09B91071
:100C3100020404B9080104A2D5200F0250010420C6
:100C41000B68920BB55A005034C0E07F20300C196C
:100C51007F30A20B720F720E500F120C7EC20BC2AC
:100C61000FC20EC2117F30800F300E03E9C0E012B7
:100C710008C7300E03D0E0F9D0E0B55ACC300E17DA
:100C81007F30B9100C1208C77F58300D077F78806C
:100C910003B908031208C7300B057F2D0208C77F6F
:100CA100202011F87F2B200FF322920B80CF7F00A1
:100CB100B4070050052451F8E6FF22286E756C6CCC
:100CC1002900D20A12088C300AF8C20A785A30D5A3
:100CD1000108F60209322D5043495812088C2403A9
:100CE100B405004001E4900CD7931208B8743A128D
:0A0CF10008B8D20C755A04020B0477
:10013B00E9D2E7C933E833F892D5EDD2E7CD33EC0A
:07014B0033FC5002B2D52283
:10015200EC30E7100FBF000C0EBE00080DBD00040E
:100162000BEB6014A2D5EB13FCED92E7FD2274FFBA
:10017200FCFDFEFF22E480F8A2D574FF13FC7D8013
:03018200E480EF27
:10018500F920E72824F950037907E4F42402FB1841
:10019500DBFDE624FB5014E9600DE4F618E604F6F1
:0F01A500B40A08E4F6D9F57401F60A22C2D5228D
:1001B400ED33EC3392D5FA602AB4FF33EDC2E77B1A
:1001C400FF60067A0179D9E4227A0179E220D50424
:1001D4007A0179DD224E614E002B494E46002D49AD
:1001E4004E4600E47A08F608DAFC7B00740722E83D
:1001F400C0E0ECC0E0EDC0E0EEC0E0EFC0E0EA75C6
:10020400F010A4CAABF075F04DA42BFBE435F0FC60
:10021400EA2410FAEB34C5FBEC34D9FCEDC2E7FF59
:1002240075F056A4F42411C5F0F434C58FF0A42A53
:10023400E5F03BE43CF620E7141204E5D0E0FFD0FF
:10024400E0FED0E0FDD0E0FC1200298014F404129A
:1002540004E5D0E0FFD0E0FED0E0FDD0E0FC1203E6
:10026400AFD0E0F8E6FAEDD2E7CD33EC332482FBED
:10027400E4C3CF33CFCE33CECD33CD33DBF37B07E3
:1002840075F00A846004F6081B0AE5F0F6088FF09E
:10029400740AA4FFACF08EF0740AA42CFEACF050E7
:1002A400010C8DF0740AA42CFDE435F0F608DBDEB5
:0302B400740722AA
:1002B700020170E86480F8E933E83360110460F004
:1002C700ED33EC337009E8FCE9FDEAFEEBFF2204AD
:1002D70060DED3EB9FEA9EE99DE8C2E78CF0C2F7A8
:1002E70095F0400CE8CCF8E9CDF9EACEFAEBCFFB74
:1002F70012013B85D0F05804700320D5B3E8047091
:10030700075002B2D502017A92D5EC0460F7E4CC2B
:10031700C0E0C398F8603B94186008400DD0E0FB3C
:10032700020152E4FBFAC9FC8028E830E406E4C97C
:10033700FBE4CAFCE830E305E4C9CACBFCE8540790
:100347006010F8C3E913F9EA13FAEB13FBEC13FC9B
:10035700D8F130F52FC3E49CFCEF9BFFEE9AFEED3E
:1003670099FDD0E0FBEF4E4D4C701222DB030201EA
:1003770077EC2CFCEF33FFEE33FEED33FDED30E78A
:10038700EB020152EF2BFFEE3AFEED39FDD0E0FB19
:1003970050130BBB000302017AED13FDEE13FEEFC2
:0803A70013FFEC13FC020152EC
:1003AF00EC4D6011E8497017ED33EC3304600DE448
:1003BF00FCFFFEFD22E933E8330470F802017012EE
:1003CF00013B58046009E4CC2481500628500902EF
:1003DF00017A284003020177C0E0EB4A7044B980EC
:1003EF0006D0E0FB020166EF4E701CBD8008EBFFEC
:1003FF00EAFEE9FD80EBE98DF0A4FEE5F00204983A
:10040F00E9CDF9EAFEEBFFEF89F0A4FCE5F0CE8928
:10041F00F0A42EFFE435F0CD89F0A42DFEE435F0E5
:10042F008067EF4E7005BD80D780C3EF8BF0A4AC13
:10043F00F0EE8BF0A42CFCE435F0F8EF8AF0A42C4E
:10044F00E5F038FCE433CB8DF0A42CFCE5F03BF861
:10045F00EE8AF0A42CFCE5F038F8E433CF89F0A451
:10046F002CFCE5F038CF3400CE89F0A42FFFE5F057
:10047F003EFEE433C98DF0A42EFEE5F039CD8AF0AF
:10048F00A42FFFE5F03EFEE43DFD33D0E0FB500727
:10049F000BBB000F02017AEC2CFCEF33FFEE33FEA7
:0604AF00ED33FD020152D5
:1004B5003F8000004120000042C80000447A00004F
:1004C500461C400047C35000497424004B189680D1
:1004D5004CBEBC205A0E1BCA6753C21C749DC5AEC8
:1004E500FB60065407601C2323120513EB54386088
:1004F500091204FF12050E1203AFECF8EDF9EEFA3E
:10050500EFCB22EB12050E80F1543803241C900426
:10051500B5FE93FC0EEE93FD0EEE930ECE93FF22E9
:03000000020FDF0D
:0C0FDF00787FE4F6D8FD75815D021026D5
:10052500BB010689828A83E0225002E722BBFE02D4
:09053500E32289828A83E4932207
:10053E00BB010CE58229F582E5833AF583E0225072
:10054E0006E92582F8E622BBFE06E92582F8E222BC
:0D055E00E58229F582E5833AF583E49322D6
:10056B00BB010689828A83F0225002F722BBFE016F
:02057B00F32269
:10057D00E88FF0A4CC8BF0A42CFCE98EF0A42CFC1D
:10058D008AF0EDA42CFCEA8EF0A4CDA8F08BF0A49B
:10059D002DCC3825F0FDE98FF0A42CCD35F0FCEBFA
:1005AD008EF0A4FEA9F0EB8FF0A4CFC5F02ECD39BF
:0F05BD00FEE43CFCEAA42DCE35F0FDE43CFC222C
:1005CC0075F008758200EF2FFFEE33FECD33CDCCE6
:1005DC0033CCC58233C5829BED9AEC99E582984069
:1005EC000CF582EE9BFEED9AFDEC99FC0FD5F0D646
:1005FC00E4CEFBE4CDFAE4CCF9A88222B800C1B970
:10060C000059BA002DEC8BF084CFCECDFCE5F0CBAD
:10061C00F97818EF2FFFEE33FEED33FDEC33FCEBE6
:10062C0033FB10D703994004EB99FB0FD8E5E4F9A1
:10063C00FA227818EF2FFFEE33FEED33FDEC33FC8E
:10064C00C933C910D7059BE99A4007EC9BFCE99A82
:10065C00F90FD8E0E4C9FAE4CCFB2275F010EF2FC7
:10066C00FFEE33FEED33FDCC33CCC833C810D707C7
:10067C009BEC9AE899400AED9BFDEC9AFCE899F802
:0E068C000FD5F0DAE4CDFBE4CCFAE4C8F92295
:10118C00C2D5E830E70FB2D5E4C39BFBE49AFAE48E
:10119C0099F9E498F8EC30E717B2D51211C212069F
:1011AC0008E4C39BFBE49AFAE499F9E498F8800309
:1011BC0012060830D50DE4C39FFFE49EFEE49DFDAE
:0411CC00E49CFC2281
:0E069A00C3E49FFFE49EFEE49DFDE49CFC2271
:1006A800E8600FECC313FCED13FDEE13FEEF13FF30
:0306B800D8F12254
:1006BB00FAE6FB0808E6F925F0F618E6CA3AF62240
:1006CB00D083D082F8E4937012740193700DA3A3BE
:1006DB0093F8740193F5828883E4737402936860D2
:0606EB00EFA3A3A380DFD2
:1006F100E3F5F009E208B5F06D606B80F3E3F5F026
:1007010009E608B5F060605E80F387F009E608B598
:10071100F054605280F487F009E208B5F048604671
:1007210080F488828C8387F009E0A3B5F0386036C5
:1007310080F488828C8387F009E493A3B5F0276065
:100741002580F388828C83E3F5F009E0A3B5F016E8
:10075100601480F388828C83E3F5F009E493A3B5F8
:10076100F004600280F202081C808580E7808E80A0
:10077100D2803C8015806C807E809B80B5808B8090
:10078100A1804F8070803A02082889828A83ECFA1E
:10079100E493F5F0A3C8C582C8CCC583CCE493A388
:1007A100C8C582C8CCC583CCB5F070606E80E189C4
:1007B100828A83E493F5F0A3E208B5F05E605C8081
:1007C100F289828A83E0F5F0A3E608B5F04D604B2B
:1007D10080F389828A83E0F5F0A3E208B5F03C60FA
:1007E1003A80F389828A83E493F5F0A3E608B5F0B1
:1007F1002A602880F2805389828A83ECFAE493F597
:10080100F0A3C8C582C8CCC583CCE0A3C8C582C843
:10081100CCC583CCB5F004600280E27FFFB5F00265
:100821000F2240027F012289828A83ECFAE0F5F0EF
:10083100A3C8C582C8CCC583CCE0A3C8C582C8CC37
:10084100C583CCB5F0D560D380E389828A83ECFA85
:10085100E0F5F0A3C8C582C8CCC583CCE493A3C896
:10086100C582C8CCC583CCB5F0B160AF80E288F059
:10087100ED2402B4040050A3F582EB2402B4040079
:0B0881005099232345822390076A73DF
:100FEB00020E77E493A3F8E493A34003F68001F297
:100FFB0008DFF48029E493A3F85407240CC8C33307
:10100B00C4540F4420C8834004F456800146F6DFD5
:10101B00E4800B010204081020408090000EE47E57
:10102B00019360BCA3FF543F30E509541FFEE493CA
:10103B00A360010ECF54C025E060A840B8E493A391
:10104B00FAE493A3F8E493A3C8C582C8CAC583CABC
:10105B00F0A3C8C582C8CAC583CADFE9DEE780BE74
:0100160000E9
:00000001FF
