:1010AD004141006672713A202575487A2020743AC4
:1010BD00202575757320686967683A2025757573E5
:1010CD000D0A0041004F5645520D0A002575487A0C
:1010DD000D0A0042004C4F570D0A0025676B487AE8
:1010ED000D0A00430025676D730D0A004400756EEF
:0C10FD006B6E6F776E20636D640D0A004F
:08000E00024F00000251000046
:10123700758911E4F58AF58CF58BF58DD2A9D2ABBA
:03124700D2AF2201
:03000B000211C51A
:1011C500C0E00550E5507002054F640A454F7014A4
:1011D500F556F555F554F553F526F525F524F5237E
:0711E500F54FF550D0E03298
:03001B000211ECE3
:1011EC00C0E00552E55270020551640A4551701475
:1011FC00F556F555F554F553F526F525F524F52357
:07120C00F551F552D0E0326C
:10119500E5262556FFE5253555FEE5243554FDE5BF
:1011A500233553FCE47B0CFAF9F812057DE41200B3
:1011B500C67B7C7AF279307841120029120104222B
:10110900E5262556FFE5253555FEE5243554FDE54B
:10111900233553FCE47B0CFAF9F812057DE412003F
:10112900C67B7C7AF279307841120029120104EFEA
:101139004E6011AB07AA06E4F9F87F407E427D0FA5
:07114900FC021151E4FEFF5E
:01115000227C
:10121300E47F0CFEFDFCAB26AA25A924A823120516
:101223007DE41200C67B7C7AF27930784112002982
:04123300120104227E
:101044008F798E788D778C76759850AB79AA78A93C
:1010540077A8767F007EC07DA87C00120608E47B1A
:1010640020FAF9F8120608C3E49FFFE49EFE740117
:101074009DFDE49CFC78081206A88FCB8FCDAB793C
:10108400AA78A977A8767F007EC07DA87C00120686
:1010940008E47B20FAF9F8120608EFF404F5CAF51F
:0910A400CC75C834D2ACD2AF22E5
:080003008F993099FDC299228A
:100CFB0078277C007D007BFF7A1079AD12086FEFAF
:100D0B007026121109C007C006121195C007C00644
:100D1B001212138E608F61D05ED05FD05CD05D7B82
:100D2B00FF7A1079B0020E7378277C007D007BFF71
:0A0D3B007A1079D012086FEF7028CB
:100D45001211098E578F58D3E55894E8E557940347
:100D55007BFF40077A1079D2020E737A1079D98514
:050D6500575C85585D9C
:100D6A00020E7378277C007D007BFF7A1079E012EF
:050D7A00086FEF70524C
:100D7F001211098E578F58C3E55894E8E55794031D
:100D8F0050097BFF7A1079E2020E73D3E558941065
:100D9F00E557942740097BFF7A1079D2020E73AC86
:100DAF0057AD58E41200CBE4FBFA797A784412007D
:0F0DBF00298F5F8E5E8D5D8C5C7BFF7A1079E8EB
:100DCE00020E7378277C007D007BFF7A1079F0127B
:050DDE00086FEF703CFE
:100DE3001211958E578F58D3E55894E8E55794031D
:100DF30040087BFF7A1079D28076AC57AD58E41265
:100E030000CBE4FBFA797A78441200298F5F8E5E77
:0A0E13008D5D8C5C7BFF7A1079F294
:100E1D00805478277C007D007BFF7A1079F91208C9
:040E2D006FEF703CB7
:100E31001212138E578F58D3E55894E8E55794034F
:100E410040087BFF7A1079D28028AC57AD58E41264
:100E510000CBE4FBFA797A78441200298F5F8E5E29
:0A0E61008D5D8C5C7BFF7A1079F246
:0C0E6B0080067BFF7A1079FB1208EE2253
:03002300020FD3F6
:100FD300C0E0C0F0C083C082C0D075D000C000C0E4
:0D0FE30001C002C003C004C005C006C00765
:100FF000309836E522B41403752200E599640A702E
:101000001C74272522F87600E52260092426F8E6DC
:10101000B40D027600752200120CFB800AAF220587
:091020002274272FF8A699C2984A
:10102900D007D006D005D004D003D002D001D0001B
:0B103900D0D0D082D083D0F0D0E032C5
:100E77001212377F807E257D007C0012104420935C
:100E8700FD3093FDC28ED28C2093FDC28CD28E3062
:100E970093FDC28ED28C0575E575B40AE7C28EC282
:100EA7008CAE4FAF50E4FCFDFBFA7901F812057DDB
:100EB700A804A905AA06AB07AF8CEFFEAD8AEDFF24
:100EC700E4FCFDEB2FFFEA3EFEED39FDEC38FCE4D8
:100ED7007B0AFAF9F81211518F268E258D248C235F
:100EE700AE51AF52E4FCFDFBFA7901F812057DA87B
:100EF70004A905AA06AB07AF8DEFFEAD8BEDFFE4A6
:100F0700FCFDEB2FFFEA3EFEED39FDEC38FCE47B00
:100F17000AFAF9F81211518F568E558D548C53E4F5
:100F2700F551F552F54FF550F575D28ED28C2093C9
:100F3700FD3093FDE4F58AF58CF58BF58D020E8B6C
:1000260002017AEC5D046005E85904700302017070
:1000360012013B580460F6EC4860F2EC7004FDFED9
:10004600FF22C860DB2481C85009C39860025006AD
:100056000201779850CAF582E9294B4A7005AB82AE
:1000660002016675F0007C1A7880C3EF9BEE9AED6C
:1000760099400DC3EF9BFFEE9AFEED99FDE842F025
:10008600DC23ACF0D0E0FFD0E0FED0E0FDAB822078
:10009600E7101BEB60BAEC2CFCEF33FFEE33FEED02
:1000A60033FD020152E803F830E705C0F075F000B1
:1000B600EF2FFFEE33FEED33FD40B830E7C280AAE6
:1000C60075F020800E75F010800575F0087D007EB5
:1000D600007F003392D530D50312069AEC334010D8
:1000E600EF33FFEE33FEED33FDEC33FCD5F0ED22BE
:0E00F600E5F0247EA2D513CC92E7CDCEFF22FA
:10010400EDD2E7CD33EC3392D524814006E4FFFEF3
:10011400FDFC22FCE4CFCECDCC24E0501174FF8052
:10012400EDC3CC13CCCD13CDCE13CECF13CF0470EF
:07013400F030D5DE02069A4F
:10088C00E570245CF8E60570227859300702785C34
:10089C00E475F0011206BB0205252000EB7F2ED279
:1008AC00008018EF540F2490D43440D4FF30040B44
:1008BC00EF24BFB41A0050032461FFE571600215E8
:1008CC00710574E5747002057330070D7859E47581
:1008DC00F0011206BBEF02056B0200037403D20792
:1008EC008003E4C207F5708B598A5A895BE4F57171
:1008FC00F573F574E57160077F201208C780F575F4
:10090C0072FFC201C200C202C203C205C206C20803
:10091C00120895FF700D3007057F001208D8AF74D0
:10092C00AE7322B4255FC2D5C204120895FF24D041
:10093C00B40A00501A75F00A787130D50508B6FF64
:10094C000106C6A426F620D5047002D20380D92451
:10095C00CFB41A00EF5004C2E5D204020BC5D20189
:10096C0080C6D20080C0D20280BCD2D580BAD2055B
:10097C0080B47F201208C72002077401B5710040B3
:10098C00F112088CFF1208C7020900D208D20680A7
:10099C009512088CFB12088CFA12088CF94A4B70D1
:1009AC000679BC7A0C7BFF20022EE571602A7E0052
:1009BC008E8275830012053E60060EEE657270F035
:1009CC00C2D5EBC0E0EAC0E0E9C0E0EE120C25D0E5
:1009DC00E0F9D0E0FAD0E0FB120525FF60AAEBC0ED
:1009EC00E0EAC0E0E9C0E01208C7D0E02401F9D089
:1009FC00E03400FAD0E0FBE5720460DCD572D980FB
:100A0C0087D20280A2120C0860F7E5727001041202
:100A1C000185A972600DE572600914F572120CAFB4
:100A2C00EF60F3EA30E702F404C3995077EAF42557
:100A3C00720430E701E404F572800D120C0860C1F9
:100A4C00EA05722572120185EA786FF630E701E447
:100A5C00257204D5720420050114120C25E4C0E0A3
:100A6C00120CAF786FE6601320E70714F61208AF8C
:100A7C00802204F6D0E014C0E07F001208AFE572CB
:100A8C0060071208A61572800B3005031208A6D059
:100A9C00E0020900D0E00480C5120C0860A0E572E9
:100AAC0004120185786FEAF6E572200502600104F4
:050ABC002404120C25CA
:100AC10074FF04C0E0120CAF1208AFE572200502FA
:100AD10060031208A6D0E0B572E87F451208B97824
:100AE1006FE67F2B30E7047F2DF404C0E01208C7C6
:100AF100D0E075F00A84C0F01208B0D0E01208B05E
:100B0100020900791080027908C206C2088008D261
:100B1100D5790A8004790AC2D5E572047002F572AA
:100B2100E4FAFDFEFF12088CFC7B08200113120879
:100B31008CFD7B1030000A12088CFE12088CFF7BA2
:100B410020EC3382D592D55013C3E43000069FFFC9
:100B5100E49EFEE42001039DFDE49CFCE4CBF8C28D
:100B610001EC700CCFCECDCCE824F8F870F38017EF
:100B7100C3EF33FFEE33FEED33FDEC33FCEB33FB20
:100B8100994002FB0FD8E9EB300105F8D0E0C448E9
:100B9100B201C0E00AEC4D4E4F78207B0070C2EAF2
:100BA100B5720040BCC0E0120C27D0F0D0E02001AB
:100BB10004C4C0E0C4B201C0F01208B0D0F0D5F056
:100BC100EB0209001206CB099D530B0458096E4C28
:100BD100096A420B084F0B10440B10490983430B60
:100BE10016550A47460AA5450A11470CDC500972F9
:100BF1002D09762E09992B097A230997200CC52AEC
:100C010009324800000991E572B4FF0375720612BA
:100C1100088CFC12088CFD12088CFE12088CFF78DF
:100C2100680201B4790AA2D5200314300509B9106C
:100C3100020404B9080104A2D520060250010420CF
:100C410002689202B571005034C0E07F2030031970
:100C51007F30A20272067205500F120C7EC202C2D0
:100C610006C205C2087F30800F300503E9C0E012DB
:100C710008C7300503D0E0F9D0E0B571CC300517D5
:100C81007F30B9100C1208C77F583004077F788075
:100C910003B908031208C73002057F2D0208C77F78
:100CA100202008F87F2B2006F322920280CF7F00BC
:100CB100B4070050052468F8E6FF22286E756C6CB5
:100CC1002900D20112088C3001F8C201787130D5A7
:100CD1000108F60209322D5043495812088C2403A9
:100CE100B405004001E4900CD7931208B8743A128D
:0A0CF10008B8D203757104020B0469
:10013B00E9D2E7C933E833F892D5EDD2E7CD33EC0A
:07014B0033FC5002B2D52283
:10015200EC30E7100FBF000C0EBE00080DBD00040E
:100162000BEB6014A2D5EB13FCED92E7FD2274FFBA
:10017200FCFDFEFF22E480F8A2D574FF13FC7D8013
:03018200E480EF27
:10018500F920E72824F950037907E4F42402FB1841
:10019500DBFDE624FB5014E9600DE4F618E604F6F1
:0F01A500B40A08E4F6D9F57401F60A22C2D5228D
:1001B400ED33EC3392D5FA602AB4FF33EDC2E77B1A
:1001C400FF60067A0179D9E4227A0179E220D50424
:1001D4007A0179DD224E614E002B494E46002D49AD
:1001E4004E4600E47A08F608DAFC7B00740722E83D
:1001F400C0E0ECC0E0EDC0E0EEC0E0EFC0E0EA75C6
:10020400F010A4CAABF075F04DA42BFBE435F0FC60
:10021400EA2410FAEB34C5FBEC34D9FCEDC2E7FF59
:1002240075F056A4F42411C5F0F434C58FF0A42A53
:10023400E5F03BE43CF620E7141204E5D0E0FFD0FF
:10024400E0FED0E0FDD0E0FC1200298014F404129A
:1002540004E5D0E0FFD0E0FED0E0FDD0E0FC1203E6
:10026400AFD0E0F8E6FAEDD2E7CD33EC332482FBED
:10027400E4C3CF33CFCE33CECD33CD33DBF37B07E3
:1002840075F00A846004F6081B0AE5F0F6088FF09E
:10029400740AA4FFACF08EF0740AA42CFEACF050E7
:1002A400010C8DF0740AA42CFDE435F0F608DBDEB5
:0302B400740722AA
:1002B700020170E86480F8E933E83360110460F004
:1002C700ED33EC337009E8FCE9FDEAFEEBFF2204AD
:1002D70060DED3EB9FEA9EE99DE8C2E78CF0C2F7A8
:1002E70095F0400CE8CCF8E9CDF9EACEFAEBCFFB74
:1002F70012013B85D0F05804700320D5B3E8047091
:10030700075002B2D502017A92D5EC0460F7E4CC2B
:10031700C0E0C398F8603B94186008400DD0E0FB3C
:10032700020152E4FBFAC9FC8028E830E406E4C97C
:10033700FBE4CAFCE830E305E4C9CACBFCE8540790
:100347006010F8C3E913F9EA13FAEB13FBEC13FC9B
:10035700D8F130F52FC3E49CFCEF9BFFEE9AFEED3E
:1003670099FDD0E0FBEF4E4D4C701222DB030201EA
:1003770077EC2CFCEF33FFEE33FEED33FDED30E78A
:10038700EB020152EF2BFFEE3AFEED39FDD0E0FB19
:1003970050130BBB000302017AED13FDEE13FEEFC2
:0803A70013FFEC13FC020152EC
:1003AF00EC4D6011E8497017ED33EC3304600DE448
:1003BF00FCFFFEFD22E933E8330470F802017012EE
:1003CF00013B58046009E4CC2481500628500902EF
:1003DF00017A284003020177C0E0EB4A7044B980EC
:1003EF0006D0E0FB020166EF4E701CBD8008EBFFEC
:1003FF00EAFEE9FD80EBE98DF0A4FEE5F00204983A
:10040F00E9CDF9EAFEEBFFEF89F0A4FCE5F0CE8928
:10041F00F0A42EFFE435F0CD89F0A42DFEE435F0E5
:10042F008067EF4E7005BD80D780C3EF8BF0A4AC13
:10043F00F0EE8BF0A42CFCE435F0F8EF8AF0A42C4E
:10044F00E5F038FCE433CB8DF0A42CFCE5F03BF861
:10045F00EE8AF0A42CFCE5F038F8E433CF89F0A451
:10046F002CFCE5F038CF3400CE89F0A42FFFE5F057
:10047F003EFEE433C98DF0A42EFEE5F039CD8AF0AF
:10048F00A42FFFE5F03EFEE43DFD33D0E0FB500727
:10049F000BBB000F02017AEC2CFCEF33FFEE33FEA7
:0604AF00ED33FD020152D5
:1004B5003F8000004120000042C80000447A00004F
:1004C500461C400047C35000497424004B189680D1
:1004D5004CBEBC205A0E1BCA6753C21C749DC5AEC8
:1004E500FB60065407601C2323120513EB54386088
:1004F500091204FF12050E1203AFECF8EDF9EEFA3E
:10050500EFCB22EB12050E80F1543803241C900426
:10051500B5FE93FC0EEE93FD0EEE930ECE93FF22E9
:03000000020F47A5
:0C0F4700787FE4F6D8FD758179020F8EEA
:10052500BB010689828A83E0225002E722BBFE02D4
:09053500E32289828A83E4932207
:10053E00BB010CE58229F582E5833AF583E0225072
:10054E0006E92582F8E622BBFE06E92582F8E222BC
:0D055E00E58229F582E5833AF583E49322D6
:10056B00BB010689828A83F0225002F722BBFE016F
:02057B00F32269
:10057D00E88FF0A4CC8BF0A42CFCE98EF0A42CFC1D
:10058D008AF0EDA42CFCEA8EF0A4CDA8F08BF0A49B
:10059D002DCC3825F0FDE98FF0A42CCD35F0FCEBFA
:1005AD008EF0A4FEA9F0EB8FF0A4CFC5F02ECD39BF
:0F05BD00FEE43CFCEAA42DCE35F0FDE43CFC222C
:1005CC0075F008758200EF2FFFEE33FECD33CDCCE6
:1005DC0033CCC58233C5829BED9AEC99E582984069
:1005EC000CF582EE9BFEED9AFDEC99FC0FD5F0D646
:1005FC00E4CEFBE4CDFAE4CCF9A88222B800C1B970
:10060C000059BA002DEC8BF084CFCECDFCE5F0CBAD
:10061C00F97818EF2FFFEE33FEED33FDEC33FCEBE6
:10062C0033FB10D703994004EB99FB0FD8E5E4F9A1
:10063C00FA227818EF2FFFEE33FEED33FDEC33FC8E
:10064C00C933C910D7059BE99A4007EC9BFCE99A82
:10065C00F90FD8E0E4C9FAE4CCFB2275F010EF2FC7
:10066C00FFEE33FEED33FDCC33CCC833C810D707C7
:10067C009BEC9AE899400AED9BFDEC9AFCE899F802
:0E068C000FD5F0DAE4CDFBE4CCFAE4C8F92295
:10115100C2D5E830E70FB2D5E4C39BFBE49AFAE4C9
:1011610099F9E498F8EC30E717B2D5121187120615
:1011710008E4C39BFBE49AFAE499F9E498F8800344
:1011810012060830D50DE4C39FFFE49EFEE49DFDE9
:04119100E49CFC22BC
:0E069A00C3E49FFFE49EFEE49DFDE49CFC2271
:1006A800E8600FECC313FCED13FDEE13FEEF13FF30
:0306B800D8F12254
:1006BB00FAE6FB0808E6F925F0F618E6CA3AF62240
:1006CB00D083D082F8E4937012740193700DA3A3BE
:1006DB0093F8740193F5828883E4737402936860D2
:0606EB00EFA3A3A380DFD2
:1006F100E3F5F009E208B5F06D606B80F3E3F5F026
:1007010009E608B5F060605E80F387F009E608B598
:10071100F054605280F487F009E208B5F048604671
:1007210080F488828C8387F009E0A3B5F0386036C5
:1007310080F488828C8387F009E493A3B5F0276065
:100741002580F388828C83E3F5F009E0A3B5F016E8
:10075100601480F388828C83E3F5F009E493A3B5F8
:10076100F004600280F202081C808580E7808E80A0
:10077100D2803C8015806C807E809B80B5808B8090
:10078100A1804F8070803A02082889828A83ECFA1E
:10079100E493F5F0A3C8C582C8CCC583CCE493A388
:1007A100C8C582C8CCC583CCB5F070606E80E189C4
:1007B100828A83E493F5F0A3E208B5F05E605C8081
:1007C100F289828A83E0F5F0A3E608B5F04D604B2B
:1007D10080F389828A83E0F5F0A3E208B5F03C60FA
:1007E1003A80F389828A83E493F5F0A3E608B5F0B1
:1007F1002A602880F2805389828A83ECFAE493F597
:10080100F0A3C8C582C8CCC583CCE0A3C8C582C843
:10081100CCC583CCB5F004600280E27FFFB5F00265
:100821000F2240027F012289828A83ECFAE0F5F0EF
:10083100A3C8C582C8CCC583CCE0A3C8C582C8CC37
:10084100C583CCB5F0D560D380E389828A83ECFA85
:10085100E0F5F0A3C8C582C8CCC583CCE493A3C896
:10086100C582C8CCC583CCB5F0B160AF80E288F059
:10087100ED2402B4040050A3F582EB2402B4040079
:0B0881005099232345822390076A73DF
:100F5300020E77E493A3F8E493A34003F68001F22F
:100F630008DFF48029E493A3F85407240CC8C3339F
:100F7300C4540F4420C8834004F456800146F6DF6E
:100F8300E4800B010204081020408090000EE47EF0
:100F9300019360BCA3FF543F30E509541FFEE49363
:100FA300A360010ECF54C025E060A840B8E493A32A
:100FB300FAE493A3F8E493A3C8C582C8CAC583CA55
:100FC300F0A3C8C582C8CAC583CADFE9DEE780BE0D
:0100160000E9
:00000001FF
