:101010004141006672713A202575487A2020743A61
:1010200020257575730D0A0041004F5645520D0A73
:10103000002575487A0D0A0042004C4F570D0A00F2
:1010400025676B487A0D0A0043002567487A0D0A28
:10105000004400756E6B6E6F776E20636D640D0AD1
:01106000008F
:0710D300022400000150009F
:1010A500758915E4F58AF58C758D4CF58BD28ED244
:0810B500ABD28CD2A9D2AF220C
:03000B0002000EE2
:0D000E00C0E00525E52570020524D0E03294
:03001B00020ED9F9
:100ED900C0E0C0F0C083C082C0D075D000C000C0DF
:0D0EE90001C002C003C004C005C006C00760
:100EF600758D4C758B000522E52264147037C28C03
:100F0600C28EAE24AF25FCFDFBFA7901F812054628
:100F1600AD07AC06AF8CEFFEAB8AEB2DF54FEE3C82
:100F2600F54E752400752500758C00758A00D28CE7
:050F3600D28E752200BF
:100F3B00D007D006D005D004D003D002D001D0000A
:0B0F4B00D0D0D082D083D0F0D0E032B4
:1010BD00AE4EAF4FAB07AA06E4F9F87F407E427DF6
:0610CD000FFC121061226D
:05001E00AE4EAF4F22C1
:100F56008F568E558D548C53759850AB56AA55A9FD
:100F660054A8537F007EC07DA87C001205D1E47B87
:100F760020FAF9F81205D1C3E49FFFE49EFE74013E
:100F86009DFDE49CFC78081206718FCB8FCDAB5685
:100F9600AA55A954A8537F007EC07DA87C001205DF
:100FA600D1E47B20FAF9F81205D1EFF404F5CAF57D
:090FB600CC75C834D2ACD2AF22D4
:03002300020FBF0A
:0B0FBF00C0E0C0D075D000C000C0072B
:100FCA0030983AE5507036E523B41403752300E5EA
:100FDA0099640A701C74262523F87600E5236009B3
:100FEA002425F8E6B40D02760075230075500180B9
:0D0FFA000AAF23052374262FF8A699C2988C
:09100700D007D000D0D0D0E032B7
:080003008F993099FDC299228A
:100CC4001210A57F807E257D007C00120F56E55012
:100CD400B401FB78267C007D007BFF7A107910122A
:100CE4000838EF701B12001EC007C0061210BD8E1C
:100CF400588F59D056D0577BFF7A107913020E447F
:100D040078267C007D007BFF7A107928120838EF62
:020D1400702845
:100D160012001E8E518F52D3E55294E8E55194038A
:100D26007BFF40077A10792A020E447A10793185C2
:050D36005156855257E3
:100D3B00020E4478267C007D007BFF7A10793812F6
:050D4B000838EF7052B2
:100D500012001E8E518F52C3E55294E8E551940360
:100D600050097BFF7A10793A020E44D3E552941071
:100D7000E551942740097BFF7A10792A020E44AC92
:100D800051AD52E41200CBE4FBFA797A78441200B8
:0F0D9000298F598E588D578C567BFF7A107940DA
:100D9F00020E4478267C007D007BFF7A1079481282
:050DAF000838EF703C64
:100DB4001210BD8E518F52D3E55294E8E55194033D
:100DC40040087BFF7A10792A8076AC51AD52E41248
:100DD40000CBE4FBFA797A78441200298F598E58B3
:0A0DE4008D578C567BFF7A10794A78
:100DEE00805478267C007D007BFF7A1079511208A2
:040DFE0038EF703C1E
:100E02001210BD8E518F52D3E55294E8E5519403EE
:100E120040087BFF7A10792A8028AC51AD52E41247
:100E220000CBE4FBFA797A78441200298F598E5864
:0A0E32008D578C567BFF7A10794A29
:100E3C0080067BFF7A1079531208B7E4F550020C48
:010E4C00D2D3
:10002600020143EC5D046005E859047003020139DE
:10003600120104580460F6EC4860F2EC7004FDFE10
:10004600FF22C860DB2481C85009C39860025006AD
:100056000201409850CAF582E9294B4A7005AB82E5
:1000660002012F75F0007C1A7880C3EF9BEE9AEDA3
:1000760099400DC3EF9BFFEE9AFEED99FDE842F025
:10008600DC23ACF0D0E0FFD0E0FED0E0FDAB822078
:10009600E7101BEB60BAEC2CFCEF33FFEE33FEED02
:1000A60033FD02011BE803F830E705C0F075F000E8
:1000B600EF2FFFEE33FEED33FD40B830E7C280AAE6
:1000C60075F020800E75F010800575F0087D007EB5
:1000D600007F003392D530D503120663EC3340100F
:1000E600EF33FFEE33FEED33FDEC33FCD5F0ED22BE
:0E00F600E5F0247EA2D513CC92E7CDCEFF22FA
:10085500E56A2456F8E6056A227853300702785689
:10086500E475F0011206840204EE2000EB7F2ED21F
:10087500008018EF540F2490D43440D4FF30040B7B
:10088500EF24BFB41A0050032461FFE56B60021525
:100895006B056EE56E7002056D30070D7853E475D6
:1008A500F001120684EF0205340200037403D20737
:1008B5008003E4C207F56A8B538A548955E4F56BC6
:1008C500F56DF56EE56B60077F2012089080F57574
:1008D5006CFFC201C200C202C203C205C206C20841
:1008E50012085EFF700D3007057F001208A1AF6E7C
:1008F500AE6D22B4255FC2D5C20412085EFF24D0B6
:10090500B40A00501A75F00A786B30D50508B6FFA1
:100915000106C6A426F620D5047002D20380D92488
:10092500CFB41A00EF5004C2E5D204020B8ED201F7
:1009350080C6D20080C0D20280BCD2D580BAD20592
:1009450080B47F201208902002077401B56B004027
:10095500F1120855FF1208900208C9D208D2068084
:1009650095120855FB120855FA120855F94A4B70AD
:100975000679857A0C7BFF20022EE56B602A7E00C6
:100985008E8275830012050760060EEE656C70F0A9
:10099500C2D5EBC0E0EAC0E0E9C0E0EE120BEED054
:1009A500E0F9D0E0FAD0E0FB1204EEFF60AAEBC05C
:1009B500E0EAC0E0E9C0E0120890D0E02401F9D0F7
:1009C500E03400FAD0E0FBE56C0460DCD56CD9803E
:1009D50087D20280A2120BD160F7E56C7001041278
:1009E500014EA96C600DE56C600914F56C120C786C
:1009F500EF60F3EA30E702F404C3995077EAF4258F
:100A05006C0430E701E404F56C800D120BD160C174
:100A1500EA056C256C12014EEA7869F630E701E4C7
:100A2500256C04D56C0420050114120BEEE4C0E01E
:100A3500120C787869E6601320E70714F612087837
:100A4500802204F6D0E014C0E07F00120878E56C3F
:100A5500600712086F156C800B30050312086FD004
:100A6500E00208C9D0E00480C5120BD160A0E56C96
:100A75000412014E7869EAF6E56C2005026001046E
:050A85002404120BEE39
:100A8A0074FF04C0E0120C78120878E56C200502A5
:100A9A00600312086FD0E0B56CE87F4512088278CF
:100AAA0069E67F2B30E7047F2DF404C0E01208903A
:100ABA00D0E075F00A84C0F0120879D0E012087903
:100ACA000208C9791080027908C206C2088008D2D1
:100ADA00D5790A8004790AC2D5E56C047002F56CEE
:100AEA00E4FAFDFEFF120855FC7B082001131208E8
:100AFA0055FD7B1030000A120855FE120855FF7B7F
:100B0A0020EC3382D592D55013C3E43000069FFF00
:100B1A00E49EFEE42001039DFDE49CFCE4CBF8C2C4
:100B2A0001EC700CCFCECDCCE824F8F870F3801726
:100B3A00C3EF33FFEE33FEED33FDEC33FCEB33FB57
:100B4A00994002FB0FD8E9EB300105F8D0E0C44820
:100B5A00B201C0E00AEC4D4E4F78207B0070C2EA29
:100B6A00B56C0040BCC0E0120BF0D0F0D0E0200120
:100B7A0004C4C0E0C4B201C0F0120879D0F0D5F0C4
:100B8A00EB0208C91206940966530ACD5809374C74
:100B9A000933420AD14F0AD9440AD949094C430AAE
:100BAA00DF550A10460A6E4509DA470CA550093B7B
:100BBA002D093F2E09622B0943230960200C8E2A36
:100BCA0008FB480000095AE56CB4FF03756C06126D
:100BDA000855FC120855FD120855FE120855FF78F3
:100BEA006202017D790AA2D5200314300509B910E1
:100BFA00020404B9080104A2D52006025001042007
:100C0A0002689202B56B005034C0E07F20300319AD
:100C1A007F30A20272067205500F120C47C202C23E
:100C2A0006C205C2087F30800F300503E9C0E01212
:100C3A000890300503D0E0F9D0E0B56BCC30051749
:100C4A007F30B9100C1208907F583004077F7880E3
:100C5A0003B908031208903002057F2D0208907F1D
:100C6A00202008F87F2B2006F322920280CF7F00F3
:100C7A00B4070050052462F8E6FF22286E756C6CF2
:100C8A002900D2011208553001F8C201786B30D51B
:100C9A000108F60208FB2D5043495812085524034F
:100CAA00B405004001E4900CA093120881743A1232
:0A0CBA000881D203756B04020ACD15
:10010400E9D2E7C933E833F892D5EDD2E7CD33EC41
:0701140033FC5002B2D522BA
:10011B00EC30E7100FBF000C0EBE00080DBD000445
:10012B000BEB6014A2D5EB13FCED92E7FD2274FFF1
:10013B00FCFDFEFF22E480F8A2D574FF13FC7D804A
:03014B00E480EF5E
:10014E00F920E72824F950037907E4F42402FB1878
:10015E00DBFDE624FB5014E9600DE4F618E604F628
:0F016E00B40A08E4F6D9F57401F60A22C2D522C4
:10017D00ED33EC3392D5FA602AB4FF33EDC2E77B51
:10018D00FF60067A0179A2E4227A0179AB20D504C9
:10019D007A0179A6224E614E002B494E46002D491B
:1001AD004E4600E47A08F608DAFC7B00740722E874
:1001BD00C0E0ECC0E0EDC0E0EEC0E0EFC0E0EA75FD
:1001CD00F010A4CAABF075F04DA42BFBE435F0FC98
:1001DD00EA2410FAEB34C5FBEC34D9FCEDC2E7FF91
:1001ED0075F056A4F42411C5F0F434C58FF0A42A8B
:1001FD00E5F03BE43CF620E7141204AED0E0FFD06E
:10020D00E0FED0E0FDD0E0FC1200298014F40412D1
:10021D0004AED0E0FFD0E0FED0E0FDD0E0FC120354
:10022D0078D0E0F8E6FAEDD2E7CD33EC332482FB5B
:10023D00E4C3CF33CFCE33CECD33CD33DBF37B071A
:10024D0075F00A846004F6081B0AE5F0F6088FF0D5
:10025D00740AA4FFACF08EF0740AA42CFEACF0501E
:10026D00010C8DF0740AA42CFDE435F0F608DBDEEC
:03027D00740722E1
:10028000020139E86480F8E933E83360110460F072
:10029000ED33EC337009E8FCE9FDEAFEEBFF2204E4
:1002A00060DED3EB9FEA9EE99DE8C2E78CF0C2F7DF
:1002B00095F0400CE8CCF8E9CDF9EACEFAEBCFFBAB
:1002C00012010485D0F05804700320D5B3E80470FF
:1002D000075002B2D502014392D5EC0460F7E4CC9A
:1002E000C0E0C398F8603B94186008400DD0E0FB74
:1002F00002011BE4FBFAC9FC8028E830E406E4C9EB
:10030000FBE4CAFCE830E305E4C9CACBFCE85407C7
:100310006010F8C3E913F9EA13FAEB13FBEC13FCD2
:10032000D8F130F52FC3E49CFCEF9BFFEE9AFEED75
:1003300099FDD0E0FBEF4E4D4C701222DB03020121
:1003400040EC2CFCEF33FFEE33FEED33FDED30E7F8
:10035000EB02011BEF2BFFEE3AFEED39FDD0E0FB87
:1003600050130BBB0003020143ED13FDEE13FEEF30
:0803700013FFEC13FC02011B5A
:10037800EC4D6011E8497017ED33EC3304600DE47F
:10038800FCFFFEFD22E933E8330470F8020139125C
:10039800010458046009E4CC24815006285009025D
:1003A8000143284003020140C0E0EB4A7044B98091
:1003B80006D0E0FB02012FEF4E701CBD8008EBFF5A
:1003C800EAFEE9FD80EBE98DF0A4FEE5F0020461A8
:1003D800E9CDF9EAFEEBFFEF89F0A4FCE5F0CE8960
:1003E800F0A42EFFE435F0CD89F0A42DFEE435F01D
:1003F8008067EF4E7005BD80D780C3EF8BF0A4AC4B
:10040800F0EE8BF0A42CFCE435F0F8EF8AF0A42C85
:10041800E5F038FCE433CB8DF0A42CFCE5F03BF898
:10042800EE8AF0A42CFCE5F038F8E433CF89F0A488
:100438002CFCE5F038CF3400CE89F0A42FFFE5F08E
:100448003EFEE433C98DF0A42EFEE5F039CD8AF0E6
:10045800A42FFFE5F03EFEE43DFD33D0E0FB50075E
:100468000BBB000F020143EC2CFCEF33FFEE33FE15
:06047800ED33FD02011B43
:10047E003F8000004120000042C80000447A000086
:10048E00461C400047C35000497424004B18968008
:10049E004CBEBC205A0E1BCA6753C21C749DC5AEFF
:1004AE00FB60065407601C23231204DCEB543860F7
:1004BE00091204C81204D7120378ECF8EDF9EEFA1B
:1004CE00EFCB22EB1204D780F1543803241C900496
:1004DE007EFE93FC0EEE93FD0EEE930ECE93FF2258
:03000000020E4DA0
:0C0E4D00787FE4F6D8FD75816E020E94EB
:1004EE00BB010689828A83E0225002E722BBFE020C
:0904FE00E32289828A83E493223F
:10050700BB010CE58229F582E5833AF583E02250A9
:1005170006E92582F8E622BBFE06E92582F8E222F3
:0D052700E58229F582E5833AF583E493220D
:10053400BB010689828A83F0225002F722BBFE01A6
:02054400F322A0
:10054600E88FF0A4CC8BF0A42CFCE98EF0A42CFC54
:100556008AF0EDA42CFCEA8EF0A4CDA8F08BF0A4D2
:100566002DCC3825F0FDE98FF0A42CCD35F0FCEB31
:100576008EF0A4FEA9F0EB8FF0A4CFC5F02ECD39F6
:0F058600FEE43CFCEAA42DCE35F0FDE43CFC2263
:1005950075F008758200EF2FFFEE33FECD33CDCC1D
:1005A50033CCC58233C5829BED9AEC99E5829840A0
:1005B5000CF582EE9BFEED9AFDEC99FC0FD5F0D67D
:1005C500E4CEFBE4CDFAE4CCF9A88222B800C1B9A7
:1005D5000059BA002DEC8BF084CFCECDFCE5F0CBE5
:1005E500F97818EF2FFFEE33FEED33FDEC33FCEB1E
:1005F50033FB10D703994004EB99FB0FD8E5E4F9D9
:10060500FA227818EF2FFFEE33FEED33FDEC33FCC5
:10061500C933C910D7059BE99A4007EC9BFCE99AB9
:10062500F90FD8E0E4C9FAE4CCFB2275F010EF2FFE
:10063500FFEE33FEED33FDCC33CCC833C810D707FE
:100645009BEC9AE899400AED9BFDEC9AFCE899F839
:0E0655000FD5F0DAE4CDFBE4CCFAE4C8F922CC
:10106100C2D5E830E70FB2D5E4C39BFBE49AFAE4BA
:1010710099F9E498F8EC30E717B2D51210971205F8
:10108100D1E4C39BFBE49AFAE499F9E498F880036C
:101091001205D130D50DE4C39FFFE49EFEE49DFD12
:0410A100E49CFC22AD
:0E066300C3E49FFFE49EFEE49DFDE49CFC22A8
:10067100E8600FECC313FCED13FDEE13FEEF13FF67
:03068100D8F1228B
:10068400FAE6FB0808E6F925F0F618E6CA3AF62277
:10069400D083D082F8E4937012740193700DA3A3F5
:1006A40093F8740193F5828883E473740293686009
:0606B400EFA3A3A380DF09
:1006BA00E3F5F009E208B5F06D606B80F3E3F5F05D
:1006CA0009E608B5F060605E80F387F009E608B5D0
:1006DA00F054605280F487F009E208B5F0486046A9
:1006EA0080F488828C8387F009E0A3B5F0386036FD
:1006FA0080F488828C8387F009E493A3B5F027609D
:10070A002580F388828C83E3F5F009E0A3B5F0161F
:10071A00601480F388828C83E3F5F009E493A3B52F
:10072A00F004600280F20207E5808580E7808E800F
:10073A00D2803C8015806C807E809B80B5808B80C7
:10074A00A1804F8070803A0207F189828A83ECFA8D
:10075A00E493F5F0A3C8C582C8CCC583CCE493A3BF
:10076A00C8C582C8CCC583CCB5F070606E80E189FB
:10077A00828A83E493F5F0A3E208B5F05E605C80B8
:10078A00F289828A83E0F5F0A3E608B5F04D604B62
:10079A0080F389828A83E0F5F0A3E208B5F03C6031
:1007AA003A80F389828A83E493F5F0A3E608B5F0E8
:1007BA002A602880F2805389828A83ECFAE493F5CE
:1007CA00F0A3C8C582C8CCC583CCE0A3C8C582C87B
:1007DA00CCC583CCB5F004600280E27FFFB5F0029D
:1007EA000F2240027F012289828A83ECFAE0F5F027
:1007FA00A3C8C582C8CCC583CCE0A3C8C582C8CC6F
:10080A00C583CCB5F0D560D380E389828A83ECFABC
:10081A00E0F5F0A3C8C582C8CCC583CCE493A3C8CD
:10082A00C582C8CCC583CCB5F0B160AF80E288F090
:10083A00ED2402B4040050A3F582EB2402B40400B0
:0B084A0050992323458223900733734D
:100E5900020CC4E493A3F8E493A34003F68001F2DF
:100E690008DFF48029E493A3F85407240CC8C3339A
:100E7900C4540F4420C8834004F456800146F6DF69
:100E8900E4800B01020408102040809010D3E47E16
:100E9900019360BCA3FF543F30E509541FFEE4935E
:100EA900A360010ECF54C025E060A840B8E493A325
:100EB900FAE493A3F8E493A3C8C582C8CAC583CA50
:100EC900F0A3C8C582C8CAC583CADFE9DEE780BE08
:0110DA000015
:00000001FF
